:100000000C9434000C943E000C943E000C943E0082
:100010000C943E000C943E000C943E000C943E0068
:100020000C943E000C943E000C943E000C943E0058
:100030000C943E000C943E000C943E000C943E0048
:100040000C943E000C943E000C943E000C943E0038
:100050000C943E000C943E000C943E000C943E0028
:100060000C943E000C943E0011241FBECFEFD8E04C
:10007000DEBFCDBF0E9440000C94CE000C94000067
:100080008CE38AB980E284B980EC8BB983E085B9CE
:1000900080E090E050E040E0F0E2E1E0F5B92FEFE1
:1000A00033EC69E0215030406040E1F700C00000CF
:1000B000682F6E279923D1F1882309F441C041119B
:1000C00065C0552309F460C0292F2E2770E02295C2
:1000D000207F552321F0992311F081112FC090E04A
:1000E0008BB1660F660F682B6BB98BB1872B8BB901
:1000F0008BB1282B2BB98BB1892B8BB989B186FB9E
:10010000882780F999B1991F9927991F53B1517088
:1001100043B14695417015B82FEF33EC69E021509B
:1001200030406040E1F700C00000B8CF442321F127
:1001300070E051110EC020E08111D1CF90E2D0CFFC
:1001400078E0511108C0282F2295207F442339F2EE
:10015000F3CF811105C04423F9F090E220E1C0CF34
:1001600021E030E0442309F4B2CF2295207F992387
:1001700009F4B5CF90E2B4CF782F770F770F770FD0
:100180005111E7CF20E0ABCF70E0DDCF5523E1F395
:10019000292F2E2770E0E9CF20E19BCFF894FFCFE5
:00000001FF
