:100000000C9434000C943E000C943E000C943E0082
:100010000C943E000C943E000C943E000C943E0068
:100020000C943E000C943E000C943E000C943E0058
:100030000C943E000C943E000C943E000C943E0048
:100040000C943E000C943E000C943E000C943E0038
:100050000C943E000C943E000C943E000C943E0028
:100060000C943E000C943E0011241FBECFEFD8E04C
:10007000DEBFCDBF0E9440000C9463000C940000D2
:1000800084B18FEF84B98CEF8BB980E284B929B148
:1000900089B1982F987081E022FD0DC0992369F0F5
:1000A0008295880F807E85B929B189B1982F987083
:1000B00081E022FFF3CF992399F380E08295880FA6
:0A00C000807E85B9F1CFF894FFCFE0
:00000001FF
